{
  "contractName": "PatientDataAccess",
  "abi": [
    {
      "anonymous": false,
      "inputs": [
        {
          "indexed": true,
          "internalType": "string",
          "name": "patientID",
          "type": "string"
        },
        {
          "indexed": true,
          "internalType": "address",
          "name": "provider",
          "type": "address"
        },
        {
          "indexed": false,
          "internalType": "bool",
          "name": "hasAccess",
          "type": "bool"
        }
      ],
      "name": "AccessChecked",
      "type": "event"
    },
    {
      "anonymous": false,
      "inputs": [
        {
          "indexed": true,
          "internalType": "string",
          "name": "patientID",
          "type": "string"
        },
        {
          "indexed": true,
          "internalType": "address",
          "name": "provider",
          "type": "address"
        },
        {
          "indexed": false,
          "internalType": "uint256",
          "name": "expiresAt",
          "type": "uint256"
        },
        {
          "indexed": false,
          "internalType": "bool",
          "name": "isEmergency",
          "type": "bool"
        }
      ],
      "name": "AccessGranted",
      "type": "event"
    },
    {
      "anonymous": false,
      "inputs": [
        {
          "indexed": true,
          "internalType": "string",
          "name": "patientID",
          "type": "string"
        },
        {
          "indexed": true,
          "internalType": "address",
          "name": "provider",
          "type": "address"
        }
      ],
      "name": "AccessRevoked",
      "type": "event"
    },
    {
      "anonymous": false,
      "inputs": [
        {
          "indexed": true,
          "internalType": "string",
          "name": "patientID",
          "type": "string"
        },
        {
          "indexed": true,
          "internalType": "address",
          "name": "actor",
          "type": "address"
        },
        {
          "indexed": false,
          "internalType": "string",
          "name": "actionType",
          "type": "string"
        },
        {
          "indexed": false,
          "internalType": "bool",
          "name": "success",
          "type": "bool"
        }
      ],
      "name": "AuditLogged",
      "type": "event"
    },
    {
      "anonymous": false,
      "inputs": [
        {
          "indexed": true,
          "internalType": "string",
          "name": "patientID",
          "type": "string"
        },
        {
          "indexed": true,
          "internalType": "address",
          "name": "provider",
          "type": "address"
        }
      ],
      "name": "EmergencyGranted",
      "type": "event"
    },
    {
      "anonymous": false,
      "inputs": [
        {
          "indexed": true,
          "internalType": "string",
          "name": "patientID",
          "type": "string"
        },
        {
          "indexed": true,
          "internalType": "address",
          "name": "provider",
          "type": "address"
        },
        {
          "indexed": false,
          "internalType": "string",
          "name": "reason",
          "type": "string"
        }
      ],
      "name": "EmergencyRequested",
      "type": "event"
    },
    {
      "anonymous": false,
      "inputs": [
        {
          "indexed": true,
          "internalType": "string",
          "name": "patientID",
          "type": "string"
        },
        {
          "indexed": false,
          "internalType": "string",
          "name": "ipfsHash",
          "type": "string"
        },
        {
          "indexed": false,
          "internalType": "string",
          "name": "fileName",
          "type": "string"
        },
        {
          "indexed": true,
          "internalType": "address",
          "name": "uploadedBy",
          "type": "address"
        }
      ],
      "name": "FileStored",
      "type": "event"
    },
    {
      "anonymous": false,
      "inputs": [
        {
          "indexed": true,
          "internalType": "string",
          "name": "patientID",
          "type": "string"
        },
        {
          "indexed": true,
          "internalType": "address",
          "name": "patientAddress",
          "type": "address"
        },
        {
          "indexed": false,
          "internalType": "string",
          "name": "name",
          "type": "string"
        },
        {
          "indexed": false,
          "internalType": "uint256",
          "name": "age",
          "type": "uint256"
        }
      ],
      "name": "PatientRegistered",
      "type": "event"
    },
    {
      "inputs": [
        {
          "internalType": "string",
          "name": "patientID",
          "type": "string"
        },
        {
          "internalType": "string",
          "name": "name",
          "type": "string"
        },
        {
          "internalType": "uint256",
          "name": "age",
          "type": "uint256"
        }
      ],
      "name": "registerPatient",
      "outputs": [],
      "stateMutability": "nonpayable",
      "type": "function"
    },
    {
      "inputs": [
        {
          "internalType": "string",
          "name": "patientID",
          "type": "string"
        },
        {
          "internalType": "address",
          "name": "providerID",
          "type": "address"
        }
      ],
      "name": "grantAccess",
      "outputs": [],
      "stateMutability": "nonpayable",
      "type": "function"
    },
    {
      "inputs": [
        {
          "internalType": "string",
          "name": "patientID",
          "type": "string"
        },
        {
          "internalType": "address",
          "name": "providerID",
          "type": "address"
        },
        {
          "internalType": "uint256",
          "name": "expiryDurationSeconds",
          "type": "uint256"
        }
      ],
      "name": "grantAccessWithExpiry",
      "outputs": [],
      "stateMutability": "nonpayable",
      "type": "function"
    },
    {
      "inputs": [
        {
          "internalType": "string",
          "name": "patientID",
          "type": "string"
        },
        {
          "internalType": "address",
          "name": "providerID",
          "type": "address"
        }
      ],
      "name": "revokeAccess",
      "outputs": [],
      "stateMutability": "nonpayable",
      "type": "function"
    },
    {
      "inputs": [
        {
          "internalType": "string",
          "name": "patientID",
          "type": "string"
        },
        {
          "internalType": "string",
          "name": "reason",
          "type": "string"
        }
      ],
      "name": "requestEmergencyAccess",
      "outputs": [],
      "stateMutability": "nonpayable",
      "type": "function"
    },
    {
      "inputs": [
        {
          "internalType": "string",
          "name": "patientID",
          "type": "string"
        },
        {
          "internalType": "address",
          "name": "providerID",
          "type": "address"
        }
      ],
      "name": "grantEmergencyAccess",
      "outputs": [],
      "stateMutability": "nonpayable",
      "type": "function"
    },
    {
      "inputs": [
        {
          "internalType": "string",
          "name": "patientID",
          "type": "string"
        },
        {
          "internalType": "address",
          "name": "providerID",
          "type": "address"
        }
      ],
      "name": "checkAccess",
      "outputs": [
        {
          "internalType": "bool",
          "name": "",
          "type": "bool"
        }
      ],
      "stateMutability": "view",
      "type": "function"
    },
    {
      "inputs": [
        {
          "internalType": "string",
          "name": "patientID",
          "type": "string"
        }
      ],
      "name": "getAccessHistory",
      "outputs": [
        {
          "internalType": "address[]",
          "name": "",
          "type": "address[]"
        },
        {
          "internalType": "bool[]",
          "name": "",
          "type": "bool[]"
        },
        {
          "internalType": "uint256[]",
          "name": "",
          "type": "uint256[]"
        },
        {
          "internalType": "bool[]",
          "name": "",
          "type": "bool[]"
        },
        {
          "internalType": "uint256[]",
          "name": "",
          "type": "uint256[]"
        }
      ],
      "stateMutability": "view",
      "type": "function"
    },
    {
      "inputs": [
        {
          "internalType": "string",
          "name": "patientID",
          "type": "string"
        }
      ],
      "name": "getPatientAuditTrail",
      "outputs": [
        {
          "internalType": "uint256[]",
          "name": "timestamps",
          "type": "uint256[]"
        },
        {
          "internalType": "address[]",
          "name": "actors",
          "type": "address[]"
        },
        {
          "internalType": "string[]",
          "name": "actionTypes",
          "type": "string[]"
        },
        {
          "internalType": "bool[]",
          "name": "successes",
          "type": "bool[]"
        },
        {
          "internalType": "address[]",
          "name": "providers",
          "type": "address[]"
        },
        {
          "internalType": "string[]",
          "name": "details",
          "type": "string[]"
        }
      ],
      "stateMutability": "view",
      "type": "function"
    },
    {
      "inputs": [
        {
          "internalType": "string",
          "name": "patientID",
          "type": "string"
        },
        {
          "internalType": "uint256",
          "name": "startTime",
          "type": "uint256"
        },
        {
          "internalType": "uint256",
          "name": "endTime",
          "type": "uint256"
        }
      ],
      "name": "getAccessHistoryByDateRange",
      "outputs": [
        {
          "internalType": "uint256[]",
          "name": "timestamps",
          "type": "uint256[]"
        },
        {
          "internalType": "address[]",
          "name": "actors",
          "type": "address[]"
        },
        {
          "internalType": "string[]",
          "name": "actionTypes",
          "type": "string[]"
        },
        {
          "internalType": "bool[]",
          "name": "successes",
          "type": "bool[]"
        },
        {
          "internalType": "address[]",
          "name": "providers",
          "type": "address[]"
        },
        {
          "internalType": "string[]",
          "name": "details",
          "type": "string[]"
        }
      ],
      "stateMutability": "view",
      "type": "function"
    },
    {
      "inputs": [
        {
          "internalType": "string",
          "name": "patientID",
          "type": "string"
        },
        {
          "internalType": "string",
          "name": "ipfsHash",
          "type": "string"
        },
        {
          "internalType": "string",
          "name": "fileName",
          "type": "string"
        }
      ],
      "name": "storeFileHash",
      "outputs": [],
      "stateMutability": "nonpayable",
      "type": "function"
    },
    {
      "inputs": [
        {
          "internalType": "string",
          "name": "patientID",
          "type": "string"
        }
      ],
      "name": "getPatientFiles",
      "outputs": [
        {
          "internalType": "string[]",
          "name": "ipfsHashes",
          "type": "string[]"
        },
        {
          "internalType": "string[]",
          "name": "fileNames",
          "type": "string[]"
        },
        {
          "internalType": "uint256[]",
          "name": "uploadTimestamps",
          "type": "uint256[]"
        },
        {
          "internalType": "address[]",
          "name": "uploadedBy",
          "type": "address[]"
        }
      ],
      "stateMutability": "view",
      "type": "function"
    },
    {
      "inputs": [
        {
          "internalType": "string",
          "name": "patientID",
          "type": "string"
        }
      ],
      "name": "getEmergencyRequests",
      "outputs": [
        {
          "internalType": "address[]",
          "name": "providers",
          "type": "address[]"
        },
        {
          "internalType": "string[]",
          "name": "reasons",
          "type": "string[]"
        },
        {
          "internalType": "uint256[]",
          "name": "requestedAt",
          "type": "uint256[]"
        },
        {
          "internalType": "bool[]",
          "name": "approved",
          "type": "bool[]"
        }
      ],
      "stateMutability": "view",
      "type": "function"
    }
  ],
  "bytecode": "0x608060405234801561001057600080fd5b50615c0680620000216000396000f3fe608060405234801561001057600080fd5b50600436106100cd5760003560e01c80638117eada1161008c578063c79fdc9411610066578063c79fdc9414610243578063da6b4ec11461025f578063dfe0b5fe14610292578063f37c215e146102ae576100cd565b80638117eada146101be57806398f08e8e146101f25780639a1ccf6a1461020e576100cd565b80616c9b146100d257806344a08b36146100ee5780634d6e6fea1461011e5780634f73ff85146101515780637606e5d51461016d5780637cff5a0114610189575b600080fd5b6100ec60048036038101906100e791906143b5565b6102ca565b005b610108600480360381019061010391906143b5565b610819565b6040516101159190614ed3565b60405180910390f35b61013860048036038101906101339190614374565b61093f565b6040516101489493929190614d86565b60405180910390f35b61016b60048036038101906101669190614470565b610fa6565b005b610187600480360381019061018291906144dc565b6112a8565b005b6101a3600480360381019061019e91906145f2565b611668565b6040516101b596959493929190614e48565b60405180910390f35b6101d860048036038101906101d39190614374565b612135565b6040516101e9959493929190614d10565b60405180910390f35b61020c60048036038101906102079190614409565b6121e6565b005b61022860048036038101906102239190614374565b61257f565b60405161023a96959493929190614e48565b60405180910390f35b61025d60048036038101906102589190614573565b612eaa565b005b61027960048036038101906102749190614374565b61319b565b6040516102899493929190614de7565b60405180910390f35b6102ac60048036038101906102a791906143b5565b61389a565b005b6102c860048036038101906102c391906143b5565b613b0c565b005b6000826040516102da9190614c93565b908152602001604051809103902060040160009054906101000a900460ff16610338576040517f08c379a000000000000000000000000000000000000000000000000000000000815260040161032f90615190565b60405180910390fd5b3373ffffffffffffffffffffffffffffffffffffffff1660008360405161035f9190614c93565b908152602001604051809103902060020160009054906101000a900473ffffffffffffffffffffffffffffffffffffffff1673ffffffffffffffffffffffffffffffffffffffff16146103e7576040517f08c379a00000000000000000000000000000000000000000000000000000000081526004016103de90615150565b60405180910390fd5b600073ffffffffffffffffffffffffffffffffffffffff168173ffffffffffffffffffffffffffffffffffffffff161415610457576040517f08c379a000000000000000000000000000000000000000000000000000000000815260040161044e90615070565b60405180910390fd5b600080836040516104689190614c93565b908152602001604051809103902090506000620151804261048991906153ab565b90506040518060800160405280600115158152602001828152602001600115158152602001428152508260030160008573ffffffffffffffffffffffffffffffffffffffff1673ffffffffffffffffffffffffffffffffffffffff16815260200190815260200160002060008201518160000160006101000a81548160ff0219169083151502179055506020820151816001015560408201518160020160006101000a81548160ff02191690831515021790555060608201518160030155905050600060018560405161055c9190614c93565b9081526020016040518091039020905060005b81805490508110156106f5578473ffffffffffffffffffffffffffffffffffffffff168282815481106105cb577f4e487b7100000000000000000000000000000000000000000000000000000000600052603260045260246000fd5b906000526020600020906005020160000160009054906101000a900473ffffffffffffffffffffffffffffffffffffffff1673ffffffffffffffffffffffffffffffffffffffff161480156106755750818181548110610654577f4e487b7100000000000000000000000000000000000000000000000000000000600052603260045260246000fd5b906000526020600020906005020160040160009054906101000a900460ff16155b156106e25760018282815481106106b5577f4e487b7100000000000000000000000000000000000000000000000000000000600052603260045260246000fd5b906000526020600020906005020160040160006101000a81548160ff0219169083151502179055506106f5565b80806106ed90615603565b91505061056f565b5061075233866040518060400160405280601181526020017f454d455247454e43595f4752414e544544000000000000000000000000000000815250600188604051806060016040528060258152602001615bac60259139613e5f565b8373ffffffffffffffffffffffffffffffffffffffff16856040516107779190614c93565b60405180910390207fa17c40319c206aae2d933c65e5ad3110eabc5bc0297bee0971a575dd84a0f65260405160405180910390a38373ffffffffffffffffffffffffffffffffffffffff16856040516107d09190614c93565b60405180910390207f25be0a9b7c4d5bddc348fdef91287ec9a317bf57aff3e1dacdbf4734c2b44bfa84600160405161080a9291906151f0565b60405180910390a35050505050565b60008060008460405161082c9190614c93565b908152602001604051809103902090508060040160009054906101000a900460ff1661085c576000915050610939565b60008160030160008573ffffffffffffffffffffffffffffffffffffffff1673ffffffffffffffffffffffffffffffffffffffff1681526020019081526020016000206040518060800160405290816000820160009054906101000a900460ff16151515158152602001600182015481526020016002820160009054906101000a900460ff161515151581526020016003820154815250509050806000015161090a57600092505050610939565b60008160200151118015610922575080602001514210155b1561093257600092505050610939565b6001925050505b92915050565b6060806060806000856040516109559190614c93565b908152602001604051809103902060040160009054906101000a900460ff166109b3576040517f08c379a00000000000000000000000000000000000000000000000000000000081526004016109aa90615190565b60405180910390fd5b3373ffffffffffffffffffffffffffffffffffffffff166000866040516109da9190614c93565b908152602001604051809103902060020160009054906101000a900473ffffffffffffffffffffffffffffffffffffffff1673ffffffffffffffffffffffffffffffffffffffff1614610a62576040517f08c379a0000000000000000000000000000000000000000000000000000000008152600401610a5990615130565b60405180910390fd5b6000600186604051610a749190614c93565b908152602001604051809103902090506000818054905090508067ffffffffffffffff811115610acd577f4e487b7100000000000000000000000000000000000000000000000000000000600052604160045260246000fd5b604051908082528060200260200182016040528015610afb5781602001602082028036833780820191505090505b5095508067ffffffffffffffff811115610b3e577f4e487b7100000000000000000000000000000000000000000000000000000000600052604160045260246000fd5b604051908082528060200260200182016040528015610b7157816020015b6060815260200190600190039081610b5c5790505b5094508067ffffffffffffffff811115610bb4577f4e487b7100000000000000000000000000000000000000000000000000000000600052604160045260246000fd5b604051908082528060200260200182016040528015610be25781602001602082028036833780820191505090505b5093508067ffffffffffffffff811115610c25577f4e487b7100000000000000000000000000000000000000000000000000000000600052604160045260246000fd5b604051908082528060200260200182016040528015610c535781602001602082028036833780820191505090505b50925060005b81811015610f9c57828181548110610c9a577f4e487b7100000000000000000000000000000000000000000000000000000000600052603260045260246000fd5b906000526020600020906005020160000160009054906101000a900473ffffffffffffffffffffffffffffffffffffffff16878281518110610d05577f4e487b7100000000000000000000000000000000000000000000000000000000600052603260045260246000fd5b602002602001019073ffffffffffffffffffffffffffffffffffffffff16908173ffffffffffffffffffffffffffffffffffffffff1681525050828181548110610d78577f4e487b7100000000000000000000000000000000000000000000000000000000600052603260045260246000fd5b90600052602060002090600502016002018054610d94906155a0565b80601f0160208091040260200160405190810160405280929190818152602001828054610dc0906155a0565b8015610e0d5780601f10610de257610100808354040283529160200191610e0d565b820191906000526020600020905b815481529060010190602001808311610df057829003601f168201915b5050505050868281518110610e4b577f4e487b7100000000000000000000000000000000000000000000000000000000600052603260045260246000fd5b6020026020010181905250828181548110610e8f577f4e487b7100000000000000000000000000000000000000000000000000000000600052603260045260246000fd5b906000526020600020906005020160030154858281518110610eda577f4e487b7100000000000000000000000000000000000000000000000000000000600052603260045260246000fd5b602002602001018181525050828181548110610f1f577f4e487b7100000000000000000000000000000000000000000000000000000000600052603260045260246000fd5b906000526020600020906005020160040160009054906101000a900460ff16848281518110610f77577f4e487b7100000000000000000000000000000000000000000000000000000000600052603260045260246000fd5b6020026020010190151590811515815250508080610f9490615603565b915050610c59565b5050509193509193565b600082604051610fb69190614c93565b908152602001604051809103902060040160009054906101000a900460ff16611014576040517f08c379a000000000000000000000000000000000000000000000000000000000815260040161100b90615190565b60405180910390fd5b600073ffffffffffffffffffffffffffffffffffffffff163373ffffffffffffffffffffffffffffffffffffffff161415611084576040517f08c379a000000000000000000000000000000000000000000000000000000000815260040161107b90615070565b60405180910390fd5b60008151116110c8576040517f08c379a00000000000000000000000000000000000000000000000000000000081526004016110bf906150f0565b60405180910390fd5b6001826040516110d89190614c93565b90815260200160405180910390206040518060a001604052803373ffffffffffffffffffffffffffffffffffffffff16815260200184815260200183815260200142815260200160001515815250908060018154018082558091505060019003906000526020600020906005020160009091909190915060008201518160000160006101000a81548173ffffffffffffffffffffffffffffffffffffffff021916908373ffffffffffffffffffffffffffffffffffffffff16021790555060208201518160010190805190602001906111b292919061423f565b5060408201518160020190805190602001906111cf92919061423f565b506060820151816003015560808201518160040160006101000a81548160ff021916908315150217905550505061124033836040518060400160405280601181526020017f454d455247454e43595f5245515545535400000000000000000000000000000081525060013386613e5f565b3373ffffffffffffffffffffffffffffffffffffffff16826040516112659190614c93565b60405180910390207faffc7d0658569705ec2b3809d3729682b22fec67806271b14c8dbeff7b2b43648360405161129c9190614f17565b60405180910390a35050565b6000836040516112b89190614c93565b908152602001604051809103902060040160009054906101000a900460ff16611316576040517f08c379a000000000000000000000000000000000000000000000000000000000815260040161130d90615190565b60405180910390fd5b600082511161135a576040517f08c379a0000000000000000000000000000000000000000000000000000000008152600401611351906150d0565b60405180910390fd5b600081511161139e576040517f08c379a000000000000000000000000000000000000000000000000000000000815260040161139590615170565b60405180910390fd5b60003373ffffffffffffffffffffffffffffffffffffffff166000856040516113c79190614c93565b908152602001604051809103902060020160009054906101000a900473ffffffffffffffffffffffffffffffffffffffff1673ffffffffffffffffffffffffffffffffffffffff16141561141e576001905061142b565b6114288433610819565b90505b8061146b576040517f08c379a000000000000000000000000000000000000000000000000000000000815260040161146290615050565b60405180910390fd5b60038460405161147b9190614c93565b90815260200160405180910390206040518060a001604052808581526020018481526020014281526020018681526020013373ffffffffffffffffffffffffffffffffffffffff168152509080600181540180825580915050600190039060005260206000209060050201600090919091909150600082015181600001908051906020019061150b92919061423f565b50602082015181600101908051906020019061152892919061423f565b5060408201518160020155606082015181600301908051906020019061154f92919061423f565b5060808201518160040160006101000a81548173ffffffffffffffffffffffffffffffffffffffff021916908373ffffffffffffffffffffffffffffffffffffffff16021790555050506115fc33856040518060400160405280600b81526020017f46494c455f53544f524544000000000000000000000000000000000000000000815250600133876040516020016115e89190614cee565b604051602081830303815290604052613e5f565b3373ffffffffffffffffffffffffffffffffffffffff16846040516116219190614c93565b60405180910390207f9c2e7325e1cfd2ced1dd14294001a63cdd2ebdafb671bb3b41aefbd27a09c5fd858560405161165a929190614f69565b60405180910390a350505050565b606080606080606080868811156116b4576040517f08c379a00000000000000000000000000000000000000000000000000000000081526004016116ab906151d0565b60405180910390fd5b6000805b600280549050811015611803578a8051906020012060028281548110611707577f4e487b7100000000000000000000000000000000000000000000000000000000600052603260045260246000fd5b90600052602060002090600602016002016040516117259190614c7c565b604051809103902014801561178557508960028281548110611770577f4e487b7100000000000000000000000000000000000000000000000000000000600052603260045260246000fd5b90600052602060002090600602016000015410155b80156117dc575088600282815481106117c7577f4e487b7100000000000000000000000000000000000000000000000000000000600052603260045260246000fd5b90600052602060002090600602016000015411155b156117f05781806117ec90615603565b9250505b80806117fb90615603565b9150506116b8565b508067ffffffffffffffff811115611844577f4e487b7100000000000000000000000000000000000000000000000000000000600052604160045260246000fd5b6040519080825280602002602001820160405280156118725781602001602082028036833780820191505090505b5096508067ffffffffffffffff8111156118b5577f4e487b7100000000000000000000000000000000000000000000000000000000600052604160045260246000fd5b6040519080825280602002602001820160405280156118e35781602001602082028036833780820191505090505b5095508067ffffffffffffffff811115611926577f4e487b7100000000000000000000000000000000000000000000000000000000600052604160045260246000fd5b60405190808252806020026020018201604052801561195957816020015b60608152602001906001900390816119445790505b5094508067ffffffffffffffff81111561199c577f4e487b7100000000000000000000000000000000000000000000000000000000600052604160045260246000fd5b6040519080825280602002602001820160405280156119ca5781602001602082028036833780820191505090505b5093508067ffffffffffffffff811115611a0d577f4e487b7100000000000000000000000000000000000000000000000000000000600052604160045260246000fd5b604051908082528060200260200182016040528015611a3b5781602001602082028036833780820191505090505b5092508067ffffffffffffffff811115611a7e577f4e487b7100000000000000000000000000000000000000000000000000000000600052604160045260246000fd5b604051908082528060200260200182016040528015611ab157816020015b6060815260200190600190039081611a9c5790505b5091506000805b600280549050811015612126578b8051906020012060028281548110611b07577f4e487b7100000000000000000000000000000000000000000000000000000000600052603260045260246000fd5b9060005260206000209060060201600201604051611b259190614c7c565b6040518091039020148015611b8557508a60028281548110611b70577f4e487b7100000000000000000000000000000000000000000000000000000000600052603260045260246000fd5b90600052602060002090600602016000015410155b8015611bdc57508960028281548110611bc7577f4e487b7100000000000000000000000000000000000000000000000000000000600052603260045260246000fd5b90600052602060002090600602016000015411155b156121135760028181548110611c1b577f4e487b7100000000000000000000000000000000000000000000000000000000600052603260045260246000fd5b906000526020600020906006020160000154898381518110611c66577f4e487b7100000000000000000000000000000000000000000000000000000000600052603260045260246000fd5b60200260200101818152505060028181548110611cac577f4e487b7100000000000000000000000000000000000000000000000000000000600052603260045260246000fd5b906000526020600020906006020160010160009054906101000a900473ffffffffffffffffffffffffffffffffffffffff16888381518110611d17577f4e487b7100000000000000000000000000000000000000000000000000000000600052603260045260246000fd5b602002602001019073ffffffffffffffffffffffffffffffffffffffff16908173ffffffffffffffffffffffffffffffffffffffff168152505060028181548110611d8b577f4e487b7100000000000000000000000000000000000000000000000000000000600052603260045260246000fd5b90600052602060002090600602016003018054611da7906155a0565b80601f0160208091040260200160405190810160405280929190818152602001828054611dd3906155a0565b8015611e205780601f10611df557610100808354040283529160200191611e20565b820191906000526020600020905b815481529060010190602001808311611e0357829003601f168201915b5050505050878381518110611e5e577f4e487b7100000000000000000000000000000000000000000000000000000000600052603260045260246000fd5b602002602001018190525060028181548110611ea3577f4e487b7100000000000000000000000000000000000000000000000000000000600052603260045260246000fd5b906000526020600020906006020160040160009054906101000a900460ff16868381518110611efb577f4e487b7100000000000000000000000000000000000000000000000000000000600052603260045260246000fd5b60200260200101901515908115158152505060028181548110611f47577f4e487b7100000000000000000000000000000000000000000000000000000000600052603260045260246000fd5b906000526020600020906006020160040160019054906101000a900473ffffffffffffffffffffffffffffffffffffffff16858381518110611fb2577f4e487b7100000000000000000000000000000000000000000000000000000000600052603260045260246000fd5b602002602001019073ffffffffffffffffffffffffffffffffffffffff16908173ffffffffffffffffffffffffffffffffffffffff168152505060028181548110612026577f4e487b7100000000000000000000000000000000000000000000000000000000600052603260045260246000fd5b90600052602060002090600602016005018054612042906155a0565b80601f016020809104026020016040519081016040528092919081815260200182805461206e906155a0565b80156120bb5780601f10612090576101008083540402835291602001916120bb565b820191906000526020600020905b81548152906001019060200180831161209e57829003601f168201915b50505050508483815181106120f9577f4e487b7100000000000000000000000000000000000000000000000000000000600052603260045260246000fd5b6020026020010181905250818061210f90615603565b9250505b808061211e90615603565b915050611ab8565b50505093975093979195509350565b606080606080606060008660405161214d9190614c93565b908152602001604051809103902060040160009054906101000a900460ff166121ab576040517f08c379a00000000000000000000000000000000000000000000000000000000081526004016121a290615190565b60405180910390fd5b6040517f08c379a00000000000000000000000000000000000000000000000000000000081526004016121dd906151b0565b60405180910390fd5b6000836040516121f69190614c93565b908152602001604051809103902060040160009054906101000a900460ff16612254576040517f08c379a000000000000000000000000000000000000000000000000000000000815260040161224b90615190565b60405180910390fd5b3373ffffffffffffffffffffffffffffffffffffffff1660008460405161227b9190614c93565b908152602001604051809103902060020160009054906101000a900473ffffffffffffffffffffffffffffffffffffffff1673ffffffffffffffffffffffffffffffffffffffff1614612303576040517f08c379a00000000000000000000000000000000000000000000000000000000081526004016122fa90615110565b60405180910390fd5b600073ffffffffffffffffffffffffffffffffffffffff168273ffffffffffffffffffffffffffffffffffffffff161415612373576040517f08c379a000000000000000000000000000000000000000000000000000000000815260040161236a90615070565b60405180910390fd5b600081116123b6576040517f08c379a00000000000000000000000000000000000000000000000000000000081526004016123ad906150b0565b60405180910390fd5b600080846040516123c79190614c93565b90815260200160405180910390209050600082426123e591906153ab565b90506040518060800160405280600115158152602001828152602001600015158152602001428152508260030160008673ffffffffffffffffffffffffffffffffffffffff1673ffffffffffffffffffffffffffffffffffffffff16815260200190815260200160002060008201518160000160006101000a81548160ff0219169083151502179055506020820151816001015560408201518160020160006101000a81548160ff0219169083151502179055506060820151816003015590505061251133866040518060400160405280600581526020017f4752414e540000000000000000000000000000000000000000000000000000008152506001886124ed8761406a565b6040516020016124fd9190614caa565b604051602081830303815290604052613e5f565b8373ffffffffffffffffffffffffffffffffffffffff16856040516125369190614c93565b60405180910390207f25be0a9b7c4d5bddc348fdef91287ec9a317bf57aff3e1dacdbf4734c2b44bfa8360006040516125709291906151f0565b60405180910390a35050505050565b6060806060806060806000805b600280549050811015612629578880519060200120600282815481106125db577f4e487b7100000000000000000000000000000000000000000000000000000000600052603260045260246000fd5b90600052602060002090600602016002016040516125f99190614c7c565b6040518091039020141561261657818061261290615603565b9250505b808061262190615603565b91505061258c565b508067ffffffffffffffff81111561266a577f4e487b7100000000000000000000000000000000000000000000000000000000600052604160045260246000fd5b6040519080825280602002602001820160405280156126985781602001602082028036833780820191505090505b5096508067ffffffffffffffff8111156126db577f4e487b7100000000000000000000000000000000000000000000000000000000600052604160045260246000fd5b6040519080825280602002602001820160405280156127095781602001602082028036833780820191505090505b5095508067ffffffffffffffff81111561274c577f4e487b7100000000000000000000000000000000000000000000000000000000600052604160045260246000fd5b60405190808252806020026020018201604052801561277f57816020015b606081526020019060019003908161276a5790505b5094508067ffffffffffffffff8111156127c2577f4e487b7100000000000000000000000000000000000000000000000000000000600052604160045260246000fd5b6040519080825280602002602001820160405280156127f05781602001602082028036833780820191505090505b5093508067ffffffffffffffff811115612833577f4e487b7100000000000000000000000000000000000000000000000000000000600052604160045260246000fd5b6040519080825280602002602001820160405280156128615781602001602082028036833780820191505090505b5092508067ffffffffffffffff8111156128a4577f4e487b7100000000000000000000000000000000000000000000000000000000600052604160045260246000fd5b6040519080825280602002602001820160405280156128d757816020015b60608152602001906001900390816128c25790505b5091506000805b600280549050811015612e9e5789805190602001206002828154811061292d577f4e487b7100000000000000000000000000000000000000000000000000000000600052603260045260246000fd5b906000526020600020906006020160020160405161294b9190614c7c565b60405180910390201415612e8b5760028181548110612993577f4e487b7100000000000000000000000000000000000000000000000000000000600052603260045260246000fd5b9060005260206000209060060201600001548983815181106129de577f4e487b7100000000000000000000000000000000000000000000000000000000600052603260045260246000fd5b60200260200101818152505060028181548110612a24577f4e487b7100000000000000000000000000000000000000000000000000000000600052603260045260246000fd5b906000526020600020906006020160010160009054906101000a900473ffffffffffffffffffffffffffffffffffffffff16888381518110612a8f577f4e487b7100000000000000000000000000000000000000000000000000000000600052603260045260246000fd5b602002602001019073ffffffffffffffffffffffffffffffffffffffff16908173ffffffffffffffffffffffffffffffffffffffff168152505060028181548110612b03577f4e487b7100000000000000000000000000000000000000000000000000000000600052603260045260246000fd5b90600052602060002090600602016003018054612b1f906155a0565b80601f0160208091040260200160405190810160405280929190818152602001828054612b4b906155a0565b8015612b985780601f10612b6d57610100808354040283529160200191612b98565b820191906000526020600020905b815481529060010190602001808311612b7b57829003601f168201915b5050505050878381518110612bd6577f4e487b7100000000000000000000000000000000000000000000000000000000600052603260045260246000fd5b602002602001018190525060028181548110612c1b577f4e487b7100000000000000000000000000000000000000000000000000000000600052603260045260246000fd5b906000526020600020906006020160040160009054906101000a900460ff16868381518110612c73577f4e487b7100000000000000000000000000000000000000000000000000000000600052603260045260246000fd5b60200260200101901515908115158152505060028181548110612cbf577f4e487b7100000000000000000000000000000000000000000000000000000000600052603260045260246000fd5b906000526020600020906006020160040160019054906101000a900473ffffffffffffffffffffffffffffffffffffffff16858381518110612d2a577f4e487b7100000000000000000000000000000000000000000000000000000000600052603260045260246000fd5b602002602001019073ffffffffffffffffffffffffffffffffffffffff16908173ffffffffffffffffffffffffffffffffffffffff168152505060028181548110612d9e577f4e487b7100000000000000000000000000000000000000000000000000000000600052603260045260246000fd5b90600052602060002090600602016005018054612dba906155a0565b80601f0160208091040260200160405190810160405280929190818152602001828054612de6906155a0565b8015612e335780601f10612e0857610100808354040283529160200191612e33565b820191906000526020600020905b815481529060010190602001808311612e1657829003601f168201915b5050505050848381518110612e71577f4e487b7100000000000000000000000000000000000000000000000000000000600052603260045260246000fd5b60200260200101819052508180612e8790615603565b9250505b8080612e9690615603565b9150506128de565b50505091939550919395565b6000835111612eee576040517f08c379a0000000000000000000000000000000000000000000000000000000008152600401612ee590615030565b60405180910390fd5b6000825111612f32576040517f08c379a0000000000000000000000000000000000000000000000000000000008152600401612f2990615010565b60405180910390fd5b60008111612f75576040517f08c379a0000000000000000000000000000000000000000000000000000000008152600401612f6c90614fd0565b60405180910390fd5b600083604051612f859190614c93565b908152602001604051809103902060040160009054906101000a900460ff16156130275761302233846040518060400160405280600881526020017f52454749535445520000000000000000000000000000000000000000000000008152506000806040518060400160405280601681526020017f50617469656e7420616c72656164792065786973747300000000000000000000815250613e5f565b613196565b600080846040516130389190614c93565b908152602001604051809103902090508281600001908051906020019061306092919061423f565b50818160010181905550338160020160006101000a81548173ffffffffffffffffffffffffffffffffffffffff021916908373ffffffffffffffffffffffffffffffffffffffff16021790555060018160040160006101000a81548160ff02191690831515021790555061312e33856040518060400160405280600881526020017f5245474953544552000000000000000000000000000000000000000000000000815250600160008860405160200161311a9190614ccc565b604051602081830303815290604052613e5f565b3373ffffffffffffffffffffffffffffffffffffffff16846040516131539190614c93565b60405180910390207f9cde5222994c2f81e948bee2f0fbbbe6ab2da934de817f84ad874c24757d4212858560405161318c929190614fa0565b60405180910390a3505b505050565b6060806060806000856040516131b19190614c93565b908152602001604051809103902060040160009054906101000a900460ff1661320f576040517f08c379a000000000000000000000000000000000000000000000000000000000815260040161320690615190565b60405180910390fd5b60003373ffffffffffffffffffffffffffffffffffffffff166000876040516132389190614c93565b908152602001604051809103902060020160009054906101000a900473ffffffffffffffffffffffffffffffffffffffff1673ffffffffffffffffffffffffffffffffffffffff16141561328f576001905061329c565b6132998633610819565b90505b806132dc576040517f08c379a00000000000000000000000000000000000000000000000000000000081526004016132d390615090565b60405180910390fd5b60006003876040516132ee9190614c93565b908152602001604051809103902090506000818054905090508067ffffffffffffffff811115613347577f4e487b7100000000000000000000000000000000000000000000000000000000600052604160045260246000fd5b60405190808252806020026020018201604052801561337a57816020015b60608152602001906001900390816133655790505b5096508067ffffffffffffffff8111156133bd577f4e487b7100000000000000000000000000000000000000000000000000000000600052604160045260246000fd5b6040519080825280602002602001820160405280156133f057816020015b60608152602001906001900390816133db5790505b5095508067ffffffffffffffff811115613433577f4e487b7100000000000000000000000000000000000000000000000000000000600052604160045260246000fd5b6040519080825280602002602001820160405280156134615781602001602082028036833780820191505090505b5094508067ffffffffffffffff8111156134a4577f4e487b7100000000000000000000000000000000000000000000000000000000600052604160045260246000fd5b6040519080825280602002602001820160405280156134d25781602001602082028036833780820191505090505b50935060005b8181101561388f57828181548110613519577f4e487b7100000000000000000000000000000000000000000000000000000000600052603260045260246000fd5b90600052602060002090600502016000018054613535906155a0565b80601f0160208091040260200160405190810160405280929190818152602001828054613561906155a0565b80156135ae5780601f10613583576101008083540402835291602001916135ae565b820191906000526020600020905b81548152906001019060200180831161359157829003601f168201915b50505050508882815181106135ec577f4e487b7100000000000000000000000000000000000000000000000000000000600052603260045260246000fd5b6020026020010181905250828181548110613630577f4e487b7100000000000000000000000000000000000000000000000000000000600052603260045260246000fd5b9060005260206000209060050201600101805461364c906155a0565b80601f0160208091040260200160405190810160405280929190818152602001828054613678906155a0565b80156136c55780601f1061369a576101008083540402835291602001916136c5565b820191906000526020600020905b8154815290600101906020018083116136a857829003601f168201915b5050505050878281518110613703577f4e487b7100000000000000000000000000000000000000000000000000000000600052603260045260246000fd5b6020026020010181905250828181548110613747577f4e487b7100000000000000000000000000000000000000000000000000000000600052603260045260246000fd5b906000526020600020906005020160020154868281518110613792577f4e487b7100000000000000000000000000000000000000000000000000000000600052603260045260246000fd5b6020026020010181815250508281815481106137d7577f4e487b7100000000000000000000000000000000000000000000000000000000600052603260045260246000fd5b906000526020600020906005020160040160009054906101000a900473ffffffffffffffffffffffffffffffffffffffff16858281518110613842577f4e487b7100000000000000000000000000000000000000000000000000000000600052603260045260246000fd5b602002602001019073ffffffffffffffffffffffffffffffffffffffff16908173ffffffffffffffffffffffffffffffffffffffff1681525050808061388790615603565b9150506134d8565b505050509193509193565b6000826040516138aa9190614c93565b908152602001604051809103902060040160009054906101000a900460ff16613908576040517f08c379a00000000000000000000000000000000000000000000000000000000081526004016138ff90615190565b60405180910390fd5b3373ffffffffffffffffffffffffffffffffffffffff1660008360405161392f9190614c93565b908152602001604051809103902060020160009054906101000a900473ffffffffffffffffffffffffffffffffffffffff1673ffffffffffffffffffffffffffffffffffffffff16146139b7576040517f08c379a00000000000000000000000000000000000000000000000000000000081526004016139ae90614ff0565b60405180910390fd5b600080836040516139c89190614c93565b9081526020016040518091039020905060008160030160008473ffffffffffffffffffffffffffffffffffffffff1673ffffffffffffffffffffffffffffffffffffffff16815260200190815260200160002060000160006101000a81548160ff021916908315150217905550613aae33846040518060400160405280600681526020017f5245564f4b4500000000000000000000000000000000000000000000000000008152506001866040518060400160405280600e81526020017f416363657373207265766f6b6564000000000000000000000000000000000000815250613e5f565b8173ffffffffffffffffffffffffffffffffffffffff1683604051613ad39190614c93565b60405180910390207fa4056635223780a71518e8c10b6fc0fd195775c8375c4841c124a959ae5c30ad60405160405180910390a3505050565b600082604051613b1c9190614c93565b908152602001604051809103902060040160009054906101000a900460ff16613b7a576040517f08c379a0000000000000000000000000000000000000000000000000000000008152600401613b7190615190565b60405180910390fd5b3373ffffffffffffffffffffffffffffffffffffffff16600083604051613ba19190614c93565b908152602001604051809103902060020160009054906101000a900473ffffffffffffffffffffffffffffffffffffffff1673ffffffffffffffffffffffffffffffffffffffff1614613c29576040517f08c379a0000000000000000000000000000000000000000000000000000000008152600401613c2090615110565b60405180910390fd5b600073ffffffffffffffffffffffffffffffffffffffff168173ffffffffffffffffffffffffffffffffffffffff161415613c99576040517f08c379a0000000000000000000000000000000000000000000000000000000008152600401613c9090615070565b60405180910390fd5b60008083604051613caa9190614c93565b90815260200160405180910390209050604051806080016040528060011515815260200160008152602001600015158152602001428152508160030160008473ffffffffffffffffffffffffffffffffffffffff1673ffffffffffffffffffffffffffffffffffffffff16815260200190815260200160002060008201518160000160006101000a81548160ff0219169083151502179055506020820151816001015560408201518160020160006101000a81548160ff02191690831515021790555060608201518160030155905050613df333846040518060400160405280600581526020017f4752414e540000000000000000000000000000000000000000000000000000008152506001866040518060400160405280601881526020017f5065726d616e656e7420616363657373206772616e7465640000000000000000815250613e5f565b8173ffffffffffffffffffffffffffffffffffffffff1683604051613e189190614c93565b60405180910390207f25be0a9b7c4d5bddc348fdef91287ec9a317bf57aff3e1dacdbf4734c2b44bfa600080604051613e52929190614eee565b60405180910390a3505050565b60026040518060e001604052804281526020018873ffffffffffffffffffffffffffffffffffffffff16815260200187815260200186815260200185151581526020018473ffffffffffffffffffffffffffffffffffffffff1681526020018381525090806001815401808255809150506001900390600052602060002090600602016000909190919091506000820151816000015560208201518160010160006101000a81548173ffffffffffffffffffffffffffffffffffffffff021916908373ffffffffffffffffffffffffffffffffffffffff1602179055506040820151816002019080519060200190613f5892919061423f565b506060820151816003019080519060200190613f7592919061423f565b5060808201518160040160006101000a81548160ff02191690831515021790555060a08201518160040160016101000a81548173ffffffffffffffffffffffffffffffffffffffff021916908373ffffffffffffffffffffffffffffffffffffffff16021790555060c0820151816005019080519060200190613ff992919061423f565b5050508573ffffffffffffffffffffffffffffffffffffffff16856040516140219190614c93565b60405180910390207fc77e77a787ee02561d04455df768fde02b22f083099a86a2648193f3718ae27a868660405161405a929190614f39565b60405180910390a3505050505050565b606060008214156140b2576040518060400160405280600181526020017f3000000000000000000000000000000000000000000000000000000000000000815250905061423a565b600082905060005b600082146140e45780806140cd90615603565b915050600a826140dd9190615438565b91506140ba565b60008167ffffffffffffffff811115614126577f4e487b7100000000000000000000000000000000000000000000000000000000600052604160045260246000fd5b6040519080825280601f01601f1916602001820160405280156141585781602001600182028036833780820191505090505b50905060008290505b600086146142325760018161417691906154c3565b90506000600a80886141889190615438565b6141929190615469565b8761419d91906154c3565b60306141a99190615401565b905060008160f81b9050808484815181106141ed577f4e487b7100000000000000000000000000000000000000000000000000000000600052603260045260246000fd5b60200101907effffffffffffffffffffffffffffffffffffffffffffffffffffffffffffff1916908160001a905350600a886142299190615438565b97505050614161565b819450505050505b919050565b82805461424b906155a0565b90600052602060002090601f01602090048101928261426d57600085556142b4565b82601f1061428657805160ff19168380011785556142b4565b828001600101855582156142b4579182015b828111156142b3578251825591602001919060010190614298565b5b5090506142c191906142c5565b5090565b5b808211156142de5760008160009055506001016142c6565b5090565b60006142f56142f08461523e565b615219565b90508281526020810184848401111561430d57600080fd5b61431884828561555e565b509392505050565b60008135905061432f81615b7d565b92915050565b600082601f83011261434657600080fd5b81356143568482602086016142e2565b91505092915050565b60008135905061436e81615b94565b92915050565b60006020828403121561438657600080fd5b600082013567ffffffffffffffff8111156143a057600080fd5b6143ac84828501614335565b91505092915050565b600080604083850312156143c857600080fd5b600083013567ffffffffffffffff8111156143e257600080fd5b6143ee85828601614335565b92505060206143ff85828601614320565b9150509250929050565b60008060006060848603121561441e57600080fd5b600084013567ffffffffffffffff81111561443857600080fd5b61444486828701614335565b935050602061445586828701614320565b92505060406144668682870161435f565b9150509250925092565b6000806040838503121561448357600080fd5b600083013567ffffffffffffffff81111561449d57600080fd5b6144a985828601614335565b925050602083013567ffffffffffffffff8111156144c657600080fd5b6144d285828601614335565b9150509250929050565b6000806000606084860312156144f157600080fd5b600084013567ffffffffffffffff81111561450b57600080fd5b61451786828701614335565b935050602084013567ffffffffffffffff81111561453457600080fd5b61454086828701614335565b925050604084013567ffffffffffffffff81111561455d57600080fd5b61456986828701614335565b9150509250925092565b60008060006060848603121561458857600080fd5b600084013567ffffffffffffffff8111156145a257600080fd5b6145ae86828701614335565b935050602084013567ffffffffffffffff8111156145cb57600080fd5b6145d786828701614335565b92505060406145e88682870161435f565b9150509250925092565b60008060006060848603121561460757600080fd5b600084013567ffffffffffffffff81111561462157600080fd5b61462d86828701614335565b935050602061463e8682870161435f565b925050604061464f8682870161435f565b9150509250925092565b600061466583836146b5565b60208301905092915050565b600061467d8383614853565b60208301905092915050565b600061469583836148ff565b905092915050565b60006146a98383614c5e565b60208301905092915050565b6146be816154f7565b82525050565b60006146cf826152c4565b6146d9818561532f565b93506146e48361526f565b8060005b838110156147155781516146fc8882614659565b9750614707836152fb565b9250506001810190506146e8565b5085935050505092915050565b600061472d826152cf565b6147378185615340565b93506147428361527f565b8060005b8381101561477357815161475a8882614671565b975061476583615308565b925050600181019050614746565b5085935050505092915050565b600061478b826152da565b6147958185615351565b9350836020820285016147a78561528f565b8060005b858110156147e357848403895281516147c48582614689565b94506147cf83615315565b925060208a019950506001810190506147ab565b50829750879550505050505092915050565b6000614800826152e5565b61480a8185615362565b93506148158361529f565b8060005b8381101561484657815161482d888261469d565b975061483883615322565b925050600181019050614819565b5085935050505092915050565b61485c81615509565b82525050565b61486b81615509565b82525050565b6000815461487e816155a0565b6148888186615373565b945060018216600081146148a357600181146148b4576148e7565b60ff198316865281860193506148e7565b6148bd856152af565b60005b838110156148df578154818901526001820191506020810190506148c0565b838801955050505b50505092915050565b6148f98161554c565b82525050565b600061490a826152f0565b614914818561537e565b935061492481856020860161556d565b61492d81615708565b840191505092915050565b6000614943826152f0565b61494d818561538f565b935061495d81856020860161556d565b61496681615708565b840191505092915050565b600061497c826152f0565b61498681856153a0565b935061499681856020860161556d565b80840191505092915050565b60006149af601a8361538f565b91506149ba82615719565b602082019050919050565b60006149d2601e8361538f565b91506149dd82615742565b602082019050919050565b60006149f560148361538f565b9150614a008261576b565b602082019050919050565b6000614a18601a8361538f565b9150614a2382615794565b602082019050919050565b6000614a3b601c836153a0565b9150614a46826157bd565b601c82019050919050565b6000614a5e60428361538f565b9150614a69826157e6565b606082019050919050565b6000614a81600c836153a0565b9150614a8c8261585b565b600c82019050919050565b6000614aa460188361538f565b9150614aaf82615884565b602082019050919050565b6000614ac760418361538f565b9150614ad2826158ad565b606082019050919050565b6000614aea60268361538f565b9150614af582615922565b604082019050919050565b6000614b0d600d836153a0565b9150614b1882615971565b600d82019050919050565b6000614b3060198361538f565b9150614b3b8261599a565b602082019050919050565b6000614b5360168361538f565b9150614b5e826159c3565b602082019050919050565b6000614b76601d8361538f565b9150614b81826159ec565b602082019050919050565b6000614b9960288361538f565b9150614ba482615a15565b604082019050919050565b6000614bbc60278361538f565b9150614bc782615a64565b604082019050919050565b6000614bdf60198361538f565b9150614bea82615ab3565b602082019050919050565b6000614c0260168361538f565b9150614c0d82615adc565b602082019050919050565b6000614c25602b8361538f565b9150614c3082615b05565b604082019050919050565b6000614c4860128361538f565b9150614c5382615b54565b602082019050919050565b614c6781615535565b82525050565b614c7681615535565b82525050565b6000614c888284614871565b915081905092915050565b6000614c9f8284614971565b915081905092915050565b6000614cb582614a2e565b9150614cc18284614971565b915081905092915050565b6000614cd782614a74565b9150614ce38284614971565b915081905092915050565b6000614cf982614b00565b9150614d058284614971565b915081905092915050565b600060a0820190508181036000830152614d2a81886146c4565b90508181036020830152614d3e8187614722565b90508181036040830152614d5281866147f5565b90508181036060830152614d668185614722565b90508181036080830152614d7a81846147f5565b90509695505050505050565b60006080820190508181036000830152614da081876146c4565b90508181036020830152614db48186614780565b90508181036040830152614dc881856147f5565b90508181036060830152614ddc8184614722565b905095945050505050565b60006080820190508181036000830152614e018187614780565b90508181036020830152614e158186614780565b90508181036040830152614e2981856147f5565b90508181036060830152614e3d81846146c4565b905095945050505050565b600060c0820190508181036000830152614e6281896147f5565b90508181036020830152614e7681886146c4565b90508181036040830152614e8a8187614780565b90508181036060830152614e9e8186614722565b90508181036080830152614eb281856146c4565b905081810360a0830152614ec68184614780565b9050979650505050505050565b6000602082019050614ee86000830184614862565b92915050565b6000604082019050614f0360008301856148f0565b614f106020830184614862565b9392505050565b60006020820190508181036000830152614f318184614938565b905092915050565b60006040820190508181036000830152614f538185614938565b9050614f626020830184614862565b9392505050565b60006040820190508181036000830152614f838185614938565b90508181036020830152614f978184614938565b90509392505050565b60006040820190508181036000830152614fba8185614938565b9050614fc96020830184614c6d565b9392505050565b60006020820190508181036000830152614fe9816149a2565b9050919050565b60006020820190508181036000830152615009816149c5565b9050919050565b60006020820190508181036000830152615029816149e8565b9050919050565b6000602082019050818103600083015261504981614a0b565b9050919050565b6000602082019050818103600083015261506981614a51565b9050919050565b6000602082019050818103600083015261508981614a97565b9050919050565b600060208201905081810360008301526150a981614aba565b9050919050565b600060208201905081810360008301526150c981614add565b9050919050565b600060208201905081810360008301526150e981614b23565b9050919050565b6000602082019050818103600083015261510981614b46565b9050919050565b6000602082019050818103600083015261512981614b69565b9050919050565b6000602082019050818103600083015261514981614b8c565b9050919050565b6000602082019050818103600083015261516981614baf565b9050919050565b6000602082019050818103600083015261518981614bd2565b9050919050565b600060208201905081810360008301526151a981614bf5565b9050919050565b600060208201905081810360008301526151c981614c18565b9050919050565b600060208201905081810360008301526151e981614c3b565b9050919050565b60006040820190506152056000830185614c6d565b6152126020830184614862565b9392505050565b6000615223615234565b905061522f82826155d2565b919050565b6000604051905090565b600067ffffffffffffffff821115615259576152586156d9565b5b61526282615708565b9050602081019050919050565b6000819050602082019050919050565b6000819050602082019050919050565b6000819050602082019050919050565b6000819050602082019050919050565b60008190508160005260206000209050919050565b600081519050919050565b600081519050919050565b600081519050919050565b600081519050919050565b600081519050919050565b6000602082019050919050565b6000602082019050919050565b6000602082019050919050565b6000602082019050919050565b600082825260208201905092915050565b600082825260208201905092915050565b600082825260208201905092915050565b600082825260208201905092915050565b600081905092915050565b600082825260208201905092915050565b600082825260208201905092915050565b600081905092915050565b60006153b682615535565b91506153c183615535565b9250827fffffffffffffffffffffffffffffffffffffffffffffffffffffffffffffffff038211156153f6576153f561564c565b5b828201905092915050565b600061540c8261553f565b91506154178361553f565b92508260ff0382111561542d5761542c61564c565b5b828201905092915050565b600061544382615535565b915061544e83615535565b92508261545e5761545d61567b565b5b828204905092915050565b600061547482615535565b915061547f83615535565b9250817fffffffffffffffffffffffffffffffffffffffffffffffffffffffffffffffff04831182151516156154b8576154b761564c565b5b828202905092915050565b60006154ce82615535565b91506154d983615535565b9250828210156154ec576154eb61564c565b5b828203905092915050565b600061550282615515565b9050919050565b60008115159050919050565b600073ffffffffffffffffffffffffffffffffffffffff82169050919050565b6000819050919050565b600060ff82169050919050565b600061555782615535565b9050919050565b82818337600083830152505050565b60005b8381101561558b578082015181840152602081019050615570565b8381111561559a576000848401525b50505050565b600060028204905060018216806155b857607f821691505b602082108114156155cc576155cb6156aa565b5b50919050565b6155db82615708565b810181811067ffffffffffffffff821117156155fa576155f96156d9565b5b80604052505050565b600061560e82615535565b91507fffffffffffffffffffffffffffffffffffffffffffffffffffffffffffffffff8214156156415761564061564c565b5b600182019050919050565b7f4e487b7100000000000000000000000000000000000000000000000000000000600052601160045260246000fd5b7f4e487b7100000000000000000000000000000000000000000000000000000000600052601260045260246000fd5b7f4e487b7100000000000000000000000000000000000000000000000000000000600052602260045260246000fd5b7f4e487b7100000000000000000000000000000000000000000000000000000000600052604160045260246000fd5b6000601f19601f8301169050919050565b7f416765206d7573742062652067726561746572207468616e2030000000000000600082015250565b7f4f6e6c792070617469656e742063616e207265766f6b65206163636573730000600082015250565b7f4e616d652063616e6e6f7420626520656d707479000000000000000000000000600082015250565b7f50617469656e742049442063616e6e6f7420626520656d707479000000000000600082015250565b7f416363657373206772616e7465642c20657870697265732061743a2000000000600082015250565b7f556e617574686f72697a65643a204f6e6c792070617469656e74206f7220617560008201527f74686f72697a65642070726f7669646572732063616e2073746f72652066696c60208201527f6573000000000000000000000000000000000000000000000000000000000000604082015250565b7f526567697374657265643a200000000000000000000000000000000000000000600082015250565b7f496e76616c69642070726f766964657220616464726573730000000000000000600082015250565b7f556e617574686f72697a65643a204f6e6c792070617469656e74206f7220617560008201527f74686f72697a65642070726f7669646572732063616e20766965772066696c6560208201527f7300000000000000000000000000000000000000000000000000000000000000604082015250565b7f457870697279206475726174696f6e206d75737420626520677265617465722060008201527f7468616e20300000000000000000000000000000000000000000000000000000602082015250565b7f46696c652073746f7265643a2000000000000000000000000000000000000000600082015250565b7f4950465320686173682063616e6e6f7420626520656d70747900000000000000600082015250565b7f526561736f6e2063616e6e6f7420626520656d70747900000000000000000000600082015250565b7f4f6e6c792070617469656e742063616e206772616e7420616363657373000000600082015250565b7f4f6e6c792070617469656e742063616e207669657720656d657267656e63792060008201527f7265717565737473000000000000000000000000000000000000000000000000602082015250565b7f4f6e6c792070617469656e742063616e206772616e7420656d657267656e637960008201527f2061636365737300000000000000000000000000000000000000000000000000602082015250565b7f46696c65206e616d652063616e6e6f7420626520656d70747900000000000000600082015250565b7f50617469656e7420646f6573206e6f7420657869737400000000000000000000600082015250565b7f5573652067657450617469656e744175646974547261696c20666f722061636360008201527f65737320686973746f7279000000000000000000000000000000000000000000602082015250565b7f496e76616c696420646174652072616e67650000000000000000000000000000600082015250565b615b86816154f7565b8114615b9157600080fd5b50565b615b9d81615535565b8114615ba857600080fd5b5056fe456d657267656e637920616363657373206772616e74656420666f7220323420686f757273a2646970667358221220d91fc646d7638bcbbdfe407dbc7b842135d9fe61ef07468d599b36c97c0df04264736f6c63430008010033",
  "immutableReferences": {},
  "source": "// SPDX-License-Identifier: MIT\r\npragma solidity ^0.8.0;\r\n\r\ncontract PatientDataAccess {\r\n    \r\n    // AccessPermission struct with expiration and emergency flags\r\n    struct AccessPermission {\r\n        bool granted;\r\n        uint256 expiresAt;\r\n        bool isEmergency;\r\n        uint256 grantedAt;\r\n    }\r\n\r\n    // Patient structure containing health data and access permissions\r\n    struct Patient {\r\n        string name;\r\n        uint age;\r\n        address patientAddress;\r\n        mapping(address => AccessPermission) accessList;\r\n        bool exists;\r\n    }\r\n\r\n    // AuditLog struct for compliance tracking\r\n    struct AuditLog {\r\n        uint256 timestamp;\r\n        address actor;\r\n        string patientID;\r\n        string actionType; // \"REGISTER\", \"GRANT\", \"REVOKE\", \"EMERGENCY_REQUEST\", \"EMERGENCY_GRANTED\", \"ACCESS_CHECK\", \"FILE_STORED\"\r\n        bool success;\r\n        address provider;\r\n        string details;\r\n    }\r\n\r\n    // File metadata struct\r\n    struct FileMetadata {\r\n        string ipfsHash;\r\n        string fileName;\r\n        uint256 uploadTimestamp;\r\n        string patientID;\r\n        address uploadedBy;\r\n    }\r\n\r\n    // Emergency access request struct\r\n    struct EmergencyRequest {\r\n        address provider;\r\n        string patientID;\r\n        string reason;\r\n        uint256 requestedAt;\r\n        bool approved;\r\n    }\r\n\r\n    // Mapping of patient IDs to Patient struct\r\n    mapping(string => Patient) private patients;\r\n    \r\n    // Mapping of patient IDs to emergency requests\r\n    mapping(string => EmergencyRequest[]) private emergencyRequests;\r\n    \r\n    // Audit trail array\r\n    AuditLog[] private auditTrail;\r\n    \r\n    // Mapping of patient IDs to file metadata arrays\r\n    mapping(string => FileMetadata[]) private patientFiles;\r\n    \r\n    // Events\r\n    event PatientRegistered(string indexed patientID, address indexed patientAddress, string name, uint age);\r\n    event AccessGranted(string indexed patientID, address indexed provider, uint256 expiresAt, bool isEmergency);\r\n    event AccessRevoked(string indexed patientID, address indexed provider);\r\n    event EmergencyRequested(string indexed patientID, address indexed provider, string reason);\r\n    event EmergencyGranted(string indexed patientID, address indexed provider);\r\n    event AccessChecked(string indexed patientID, address indexed provider, bool hasAccess);\r\n    event FileStored(string indexed patientID, string ipfsHash, string fileName, address indexed uploadedBy);\r\n    event AuditLogged(string indexed patientID, address indexed actor, string actionType, bool success);\r\n\r\n    // Internal function to record audit actions\r\n    function recordAction(\r\n        address actor,\r\n        string memory patientID,\r\n        string memory actionType,\r\n        bool success,\r\n        address provider,\r\n        string memory details\r\n    ) internal {\r\n        auditTrail.push(AuditLog({\r\n            timestamp: block.timestamp,\r\n            actor: actor,\r\n            patientID: patientID,\r\n            actionType: actionType,\r\n            success: success,\r\n            provider: provider,\r\n            details: details\r\n        }));\r\n        emit AuditLogged(patientID, actor, actionType, success);\r\n    }\r\n\r\n    // Registers a new patient\r\n    function registerPatient(string memory patientID, string memory name, uint age) public {\r\n        require(bytes(patientID).length > 0, \"Patient ID cannot be empty\");\r\n        require(bytes(name).length > 0, \"Name cannot be empty\");\r\n        require(age > 0, \"Age must be greater than 0\");\r\n        \r\n        // Avoid re-registering\r\n        if (patients[patientID].exists) {\r\n            recordAction(msg.sender, patientID, \"REGISTER\", false, address(0), \"Patient already exists\");\r\n            return;\r\n        }\r\n\r\n        Patient storage newPatient = patients[patientID];\r\n        newPatient.name = name;\r\n        newPatient.age = age;\r\n        newPatient.patientAddress = msg.sender;\r\n        newPatient.exists = true;\r\n        \r\n        recordAction(msg.sender, patientID, \"REGISTER\", true, address(0), string(abi.encodePacked(\"Registered: \", name)));\r\n        emit PatientRegistered(patientID, msg.sender, name, age);\r\n    }\r\n\r\n    // Allows patient to grant access to a healthcare provider (permanent access)\r\n    function grantAccess(string memory patientID, address providerID) public {\r\n        require(patients[patientID].exists, \"Patient does not exist\");\r\n        require(patients[patientID].patientAddress == msg.sender, \"Only patient can grant access\");\r\n        require(providerID != address(0), \"Invalid provider address\");\r\n        \r\n        Patient storage patient = patients[patientID];\r\n        patient.accessList[providerID] = AccessPermission({\r\n            granted: true,\r\n            expiresAt: 0, // 0 means no expiration (permanent)\r\n            isEmergency: false,\r\n            grantedAt: block.timestamp\r\n        });\r\n        \r\n        recordAction(msg.sender, patientID, \"GRANT\", true, providerID, \"Permanent access granted\");\r\n        emit AccessGranted(patientID, providerID, 0, false);\r\n    }\r\n\r\n    // Allows patient to grant access with expiration\r\n    function grantAccessWithExpiry(\r\n        string memory patientID,\r\n        address providerID,\r\n        uint256 expiryDurationSeconds\r\n    ) public {\r\n        require(patients[patientID].exists, \"Patient does not exist\");\r\n        require(patients[patientID].patientAddress == msg.sender, \"Only patient can grant access\");\r\n        require(providerID != address(0), \"Invalid provider address\");\r\n        require(expiryDurationSeconds > 0, \"Expiry duration must be greater than 0\");\r\n        \r\n        Patient storage patient = patients[patientID];\r\n        uint256 expiresAt = block.timestamp + expiryDurationSeconds;\r\n        \r\n        patient.accessList[providerID] = AccessPermission({\r\n            granted: true,\r\n            expiresAt: expiresAt,\r\n            isEmergency: false,\r\n            grantedAt: block.timestamp\r\n        });\r\n        \r\n        recordAction(msg.sender, patientID, \"GRANT\", true, providerID, string(abi.encodePacked(\"Access granted, expires at: \", uint2str(expiresAt))));\r\n        emit AccessGranted(patientID, providerID, expiresAt, false);\r\n    }\r\n\r\n    // Allows patient to revoke access from a healthcare provider\r\n    function revokeAccess(string memory patientID, address providerID) public {\r\n        require(patients[patientID].exists, \"Patient does not exist\");\r\n        require(patients[patientID].patientAddress == msg.sender, \"Only patient can revoke access\");\r\n        \r\n        Patient storage patient = patients[patientID];\r\n        patient.accessList[providerID].granted = false;\r\n        \r\n        recordAction(msg.sender, patientID, \"REVOKE\", true, providerID, \"Access revoked\");\r\n        emit AccessRevoked(patientID, providerID);\r\n    }\r\n\r\n    // Provider requests emergency access\r\n    function requestEmergencyAccess(string memory patientID, string memory reason) public {\r\n        require(patients[patientID].exists, \"Patient does not exist\");\r\n        require(msg.sender != address(0), \"Invalid provider address\");\r\n        require(bytes(reason).length > 0, \"Reason cannot be empty\");\r\n        \r\n        emergencyRequests[patientID].push(EmergencyRequest({\r\n            provider: msg.sender,\r\n            patientID: patientID,\r\n            reason: reason,\r\n            requestedAt: block.timestamp,\r\n            approved: false\r\n        }));\r\n        \r\n        recordAction(msg.sender, patientID, \"EMERGENCY_REQUEST\", true, msg.sender, reason);\r\n        emit EmergencyRequested(patientID, msg.sender, reason);\r\n    }\r\n\r\n    // Patient grants emergency access (auto-expires after 24 hours)\r\n    function grantEmergencyAccess(string memory patientID, address providerID) public {\r\n        require(patients[patientID].exists, \"Patient does not exist\");\r\n        require(patients[patientID].patientAddress == msg.sender, \"Only patient can grant emergency access\");\r\n        require(providerID != address(0), \"Invalid provider address\");\r\n        \r\n        Patient storage patient = patients[patientID];\r\n        uint256 expiresAt = block.timestamp + 24 hours; // 24 hours expiration\r\n        \r\n        patient.accessList[providerID] = AccessPermission({\r\n            granted: true,\r\n            expiresAt: expiresAt,\r\n            isEmergency: true,\r\n            grantedAt: block.timestamp\r\n        });\r\n        \r\n        // Mark emergency request as approved\r\n        EmergencyRequest[] storage requests = emergencyRequests[patientID];\r\n        for (uint i = 0; i < requests.length; i++) {\r\n            if (requests[i].provider == providerID && !requests[i].approved) {\r\n                requests[i].approved = true;\r\n                break;\r\n            }\r\n        }\r\n        \r\n        recordAction(msg.sender, patientID, \"EMERGENCY_GRANTED\", true, providerID, \"Emergency access granted for 24 hours\");\r\n        emit EmergencyGranted(patientID, providerID);\r\n        emit AccessGranted(patientID, providerID, expiresAt, true);\r\n    }\r\n\r\n    // Checks if a provider has access to a patient's record (with expiration check)\r\n    function checkAccess(string memory patientID, address providerID) public view returns (bool) {\r\n        Patient storage patient = patients[patientID];\r\n\r\n        if (!patient.exists) {\r\n            return false;\r\n        }\r\n        \r\n        AccessPermission memory permission = patient.accessList[providerID];\r\n        \r\n        // Check if access is granted\r\n        if (!permission.granted) {\r\n            return false;\r\n        }\r\n        \r\n        // Check if access has expired (0 means no expiration)\r\n        if (permission.expiresAt > 0 && block.timestamp >= permission.expiresAt) {\r\n            return false;\r\n        }\r\n        \r\n        return true;\r\n    }\r\n\r\n    // Get access history for a patient\r\n    // Note: This function is kept for interface compatibility but redirects to audit trail\r\n    // Solidity doesn't allow iterating over mappings, so we use audit logs instead\r\n    function getAccessHistory(string memory patientID) public view returns (\r\n        address[] memory /* providers */,\r\n        bool[] memory /* hasAccess */,\r\n        uint256[] memory /* expiresAt */,\r\n        bool[] memory /* isEmergency */,\r\n        uint256[] memory /* grantedAt */\r\n    ) {\r\n        require(patients[patientID].exists, \"Patient does not exist\");\r\n        // Note: This is a simplified version. In production, you'd need to maintain a list of providers\r\n        // For now, this function structure is provided but would need additional storage to track all providers\r\n        // This is a limitation of Solidity - we can't iterate over mappings\r\n        revert(\"Use getPatientAuditTrail for access history\");\r\n    }\r\n\r\n    // Get patient audit trail\r\n    function getPatientAuditTrail(string memory patientID) public view returns (\r\n        uint256[] memory timestamps,\r\n        address[] memory actors,\r\n        string[] memory actionTypes,\r\n        bool[] memory successes,\r\n        address[] memory providers,\r\n        string[] memory details\r\n    ) {\r\n        uint256 count = 0;\r\n        \r\n        // Count matching logs\r\n        for (uint i = 0; i < auditTrail.length; i++) {\r\n            if (keccak256(bytes(auditTrail[i].patientID)) == keccak256(bytes(patientID))) {\r\n                count++;\r\n            }\r\n        }\r\n        \r\n        // Initialize arrays\r\n        timestamps = new uint256[](count);\r\n        actors = new address[](count);\r\n        actionTypes = new string[](count);\r\n        successes = new bool[](count);\r\n        providers = new address[](count);\r\n        details = new string[](count);\r\n        \r\n        // Populate arrays\r\n        uint256 index = 0;\r\n        for (uint i = 0; i < auditTrail.length; i++) {\r\n            if (keccak256(bytes(auditTrail[i].patientID)) == keccak256(bytes(patientID))) {\r\n                timestamps[index] = auditTrail[i].timestamp;\r\n                actors[index] = auditTrail[i].actor;\r\n                actionTypes[index] = auditTrail[i].actionType;\r\n                successes[index] = auditTrail[i].success;\r\n                providers[index] = auditTrail[i].provider;\r\n                details[index] = auditTrail[i].details;\r\n                index++;\r\n            }\r\n        }\r\n    }\r\n\r\n    // Get access history by date range\r\n    function getAccessHistoryByDateRange(\r\n        string memory patientID,\r\n        uint256 startTime,\r\n        uint256 endTime\r\n    ) public view returns (\r\n        uint256[] memory timestamps,\r\n        address[] memory actors,\r\n        string[] memory actionTypes,\r\n        bool[] memory successes,\r\n        address[] memory providers,\r\n        string[] memory details\r\n    ) {\r\n        require(startTime <= endTime, \"Invalid date range\");\r\n        \r\n        uint256 count = 0;\r\n        \r\n        // Count matching logs\r\n        for (uint i = 0; i < auditTrail.length; i++) {\r\n            if (keccak256(bytes(auditTrail[i].patientID)) == keccak256(bytes(patientID)) &&\r\n                auditTrail[i].timestamp >= startTime &&\r\n                auditTrail[i].timestamp <= endTime) {\r\n                count++;\r\n            }\r\n        }\r\n        \r\n        // Initialize arrays\r\n        timestamps = new uint256[](count);\r\n        actors = new address[](count);\r\n        actionTypes = new string[](count);\r\n        successes = new bool[](count);\r\n        providers = new address[](count);\r\n        details = new string[](count);\r\n        \r\n        // Populate arrays\r\n        uint256 index = 0;\r\n        for (uint i = 0; i < auditTrail.length; i++) {\r\n            if (keccak256(bytes(auditTrail[i].patientID)) == keccak256(bytes(patientID)) &&\r\n                auditTrail[i].timestamp >= startTime &&\r\n                auditTrail[i].timestamp <= endTime) {\r\n                timestamps[index] = auditTrail[i].timestamp;\r\n                actors[index] = auditTrail[i].actor;\r\n                actionTypes[index] = auditTrail[i].actionType;\r\n                successes[index] = auditTrail[i].success;\r\n                providers[index] = auditTrail[i].provider;\r\n                details[index] = auditTrail[i].details;\r\n                index++;\r\n            }\r\n        }\r\n    }\r\n\r\n    // Store file metadata on blockchain\r\n    function storeFileHash(\r\n        string memory patientID,\r\n        string memory ipfsHash,\r\n        string memory fileName\r\n    ) public {\r\n        require(patients[patientID].exists, \"Patient does not exist\");\r\n        require(bytes(ipfsHash).length > 0, \"IPFS hash cannot be empty\");\r\n        require(bytes(fileName).length > 0, \"File name cannot be empty\");\r\n        \r\n        // Check if caller has access (patient or authorized provider)\r\n        bool hasAccess = false;\r\n        if (patients[patientID].patientAddress == msg.sender) {\r\n            hasAccess = true;\r\n        } else {\r\n            hasAccess = checkAccess(patientID, msg.sender);\r\n        }\r\n        \r\n        require(hasAccess, \"Unauthorized: Only patient or authorized providers can store files\");\r\n        \r\n        patientFiles[patientID].push(FileMetadata({\r\n            ipfsHash: ipfsHash,\r\n            fileName: fileName,\r\n            uploadTimestamp: block.timestamp,\r\n            patientID: patientID,\r\n            uploadedBy: msg.sender\r\n        }));\r\n        \r\n        recordAction(msg.sender, patientID, \"FILE_STORED\", true, msg.sender, string(abi.encodePacked(\"File stored: \", fileName)));\r\n        emit FileStored(patientID, ipfsHash, fileName, msg.sender);\r\n    }\r\n\r\n    // Get all files for a patient\r\n    function getPatientFiles(string memory patientID) public view returns (\r\n        string[] memory ipfsHashes,\r\n        string[] memory fileNames,\r\n        uint256[] memory uploadTimestamps,\r\n        address[] memory uploadedBy\r\n    ) {\r\n        require(patients[patientID].exists, \"Patient does not exist\");\r\n        \r\n        // Check if caller has access\r\n        bool hasAccess = false;\r\n        if (patients[patientID].patientAddress == msg.sender) {\r\n            hasAccess = true;\r\n        } else {\r\n            hasAccess = checkAccess(patientID, msg.sender);\r\n        }\r\n        \r\n        require(hasAccess, \"Unauthorized: Only patient or authorized providers can view files\");\r\n        \r\n        FileMetadata[] storage files = patientFiles[patientID];\r\n        uint256 count = files.length;\r\n        \r\n        ipfsHashes = new string[](count);\r\n        fileNames = new string[](count);\r\n        uploadTimestamps = new uint256[](count);\r\n        uploadedBy = new address[](count);\r\n        \r\n        for (uint i = 0; i < count; i++) {\r\n            ipfsHashes[i] = files[i].ipfsHash;\r\n            fileNames[i] = files[i].fileName;\r\n            uploadTimestamps[i] = files[i].uploadTimestamp;\r\n            uploadedBy[i] = files[i].uploadedBy;\r\n        }\r\n    }\r\n\r\n    // Get emergency requests for a patient\r\n    function getEmergencyRequests(string memory patientID) public view returns (\r\n        address[] memory providers,\r\n        string[] memory reasons,\r\n        uint256[] memory requestedAt,\r\n        bool[] memory approved\r\n    ) {\r\n        require(patients[patientID].exists, \"Patient does not exist\");\r\n        require(\r\n            patients[patientID].patientAddress == msg.sender,\r\n            \"Only patient can view emergency requests\"\r\n        );\r\n        \r\n        EmergencyRequest[] storage requests = emergencyRequests[patientID];\r\n        uint256 count = requests.length;\r\n        \r\n        providers = new address[](count);\r\n        reasons = new string[](count);\r\n        requestedAt = new uint256[](count);\r\n        approved = new bool[](count);\r\n        \r\n        for (uint i = 0; i < count; i++) {\r\n            providers[i] = requests[i].provider;\r\n            reasons[i] = requests[i].reason;\r\n            requestedAt[i] = requests[i].requestedAt;\r\n            approved[i] = requests[i].approved;\r\n        }\r\n    }\r\n\r\n    // Helper function to convert uint to string (for events)\r\n    function uint2str(uint _i) internal pure returns (string memory) {\r\n        if (_i == 0) {\r\n            return \"0\";\r\n        }\r\n        uint j = _i;\r\n        uint len;\r\n        while (j != 0) {\r\n            len++;\r\n            j /= 10;\r\n        }\r\n        bytes memory bstr = new bytes(len);\r\n        uint k = len;\r\n        while (_i != 0) {\r\n            k = k-1;\r\n            uint8 temp = (48 + uint8(_i - _i / 10 * 10));\r\n            bytes1 b1 = bytes1(temp);\r\n            bstr[k] = b1;\r\n            _i /= 10;\r\n        }\r\n        return string(bstr);\r\n    }\r\n}\r\n",
  "sourcePath": "D:\\repos\\healthchain-access-control\\src\\smart_contract\\contracts\\HDA.sol",
  "compiler": {
    "name": "solc",
    "version": "0.8.1+commit.df193b15.Emscripten.clang"
  },
  "schemaVersion": "3.4.16",
  "updatedAt": "2025-11-13T21:01:59.104Z",
  "devdoc": {
    "kind": "dev",
    "methods": {},
    "version": 1
  },
  "userdoc": {
    "kind": "user",
    "methods": {},
    "version": 1
  }
}