{
  "contractName": "PatientDataAccess",
  "abi": [
    {
      "inputs": [
        {
          "internalType": "string",
          "name": "patientID",
          "type": "string"
        },
        {
          "internalType": "string",
          "name": "name",
          "type": "string"
        },
        {
          "internalType": "uint256",
          "name": "age",
          "type": "uint256"
        }
      ],
      "name": "registerPatient",
      "outputs": [],
      "stateMutability": "nonpayable",
      "type": "function"
    },
    {
      "inputs": [
        {
          "internalType": "string",
          "name": "patientID",
          "type": "string"
        },
        {
          "internalType": "address",
          "name": "providerID",
          "type": "address"
        }
      ],
      "name": "grantAccess",
      "outputs": [],
      "stateMutability": "nonpayable",
      "type": "function"
    },
    {
      "inputs": [
        {
          "internalType": "string",
          "name": "patientID",
          "type": "string"
        },
        {
          "internalType": "address",
          "name": "providerID",
          "type": "address"
        }
      ],
      "name": "revokeAccess",
      "outputs": [],
      "stateMutability": "nonpayable",
      "type": "function"
    },
    {
      "inputs": [
        {
          "internalType": "string",
          "name": "patientID",
          "type": "string"
        },
        {
          "internalType": "address",
          "name": "providerID",
          "type": "address"
        }
      ],
      "name": "checkAccess",
      "outputs": [
        {
          "internalType": "bool",
          "name": "",
          "type": "bool"
        }
      ],
      "stateMutability": "view",
      "type": "function",
      "constant": true
    }
  ],
  "bytecode": "0x608060405234801561001057600080fd5b506108ee806100206000396000f3fe608060405234801561001057600080fd5b506004361061004c5760003560e01c806344a08b3614610051578063c79fdc9414610081578063dfe0b5fe1461009d578063f37c215e146100b9575b600080fd5b61006b6004803603810190610066919061057d565b6100d5565b60405161007891906106a7565b60405180910390f35b61009b600480360381019061009691906105d1565b610171565b005b6100b760048036038101906100b2919061057d565b610254565b005b6100d360048036038101906100ce919061057d565b61034e565b005b6000806000846040516100e89190610690565b908152602001604051809103902090508060040160009054906101000a900460ff1661011857600091505061016b565b8060030160008473ffffffffffffffffffffffffffffffffffffffff1673ffffffffffffffffffffffffffffffffffffffff16815260200190815260200160002060009054906101000a900460ff169150505b92915050565b6000836040516101819190610690565b908152602001604051809103902060040160009054906101000a900460ff16156101aa5761024f565b600080846040516101bb9190610690565b90815260200160405180910390209050828160000190805190602001906101e3929190610448565b50818160010181905550338160020160006101000a81548173ffffffffffffffffffffffffffffffffffffffff021916908373ffffffffffffffffffffffffffffffffffffffff16021790555060018160040160006101000a81548160ff021916908315150217905550505b505050565b600080836040516102659190610690565b908152602001604051809103902090508060040160009054906101000a900460ff16610291575061034a565b3373ffffffffffffffffffffffffffffffffffffffff168160020160009054906101000a900473ffffffffffffffffffffffffffffffffffffffff1673ffffffffffffffffffffffffffffffffffffffff16146102ee575061034a565b60008160030160008473ffffffffffffffffffffffffffffffffffffffff1673ffffffffffffffffffffffffffffffffffffffff16815260200190815260200160002060006101000a81548160ff021916908315150217905550505b5050565b6000808360405161035f9190610690565b908152602001604051809103902090508060040160009054906101000a900460ff1661038b5750610444565b3373ffffffffffffffffffffffffffffffffffffffff168160020160009054906101000a900473ffffffffffffffffffffffffffffffffffffffff1673ffffffffffffffffffffffffffffffffffffffff16146103e85750610444565b60018160030160008473ffffffffffffffffffffffffffffffffffffffff1673ffffffffffffffffffffffffffffffffffffffff16815260200190815260200160002060006101000a81548160ff021916908315150217905550505b5050565b828054610454906107b8565b90600052602060002090601f01602090048101928261047657600085556104bd565b82601f1061048f57805160ff19168380011785556104bd565b828001600101855582156104bd579182015b828111156104bc5782518255916020019190600101906104a1565b5b5090506104ca91906104ce565b5090565b5b808211156104e75760008160009055506001016104cf565b5090565b60006104fe6104f9846106e7565b6106c2565b90508281526020810184848401111561051657600080fd5b610521848285610776565b509392505050565b6000813590506105388161088a565b92915050565b600082601f83011261054f57600080fd5b813561055f8482602086016104eb565b91505092915050565b600081359050610577816108a1565b92915050565b6000806040838503121561059057600080fd5b600083013567ffffffffffffffff8111156105aa57600080fd5b6105b68582860161053e565b92505060206105c785828601610529565b9150509250929050565b6000806000606084860312156105e657600080fd5b600084013567ffffffffffffffff81111561060057600080fd5b61060c8682870161053e565b935050602084013567ffffffffffffffff81111561062957600080fd5b6106358682870161053e565b925050604061064686828701610568565b9150509250925092565b61065981610740565b82525050565b600061066a82610718565b6106748185610723565b9350610684818560208601610785565b80840191505092915050565b600061069c828461065f565b915081905092915050565b60006020820190506106bc6000830184610650565b92915050565b60006106cc6106dd565b90506106d882826107ea565b919050565b6000604051905090565b600067ffffffffffffffff8211156107025761070161084a565b5b61070b82610879565b9050602081019050919050565b600081519050919050565b600081905092915050565b60006107398261074c565b9050919050565b60008115159050919050565b600073ffffffffffffffffffffffffffffffffffffffff82169050919050565b6000819050919050565b82818337600083830152505050565b60005b838110156107a3578082015181840152602081019050610788565b838111156107b2576000848401525b50505050565b600060028204905060018216806107d057607f821691505b602082108114156107e4576107e361081b565b5b50919050565b6107f382610879565b810181811067ffffffffffffffff821117156108125761081161084a565b5b80604052505050565b7f4e487b7100000000000000000000000000000000000000000000000000000000600052602260045260246000fd5b7f4e487b7100000000000000000000000000000000000000000000000000000000600052604160045260246000fd5b6000601f19601f8301169050919050565b6108938161072e565b811461089e57600080fd5b50565b6108aa8161076c565b81146108b557600080fd5b5056fea264697066735822122083421e2d28a8548fb6bc1233811b76bbe9a2de60a4787895275e093cb84fc89d64736f6c63430008010033",
  "immutableReferences": {},
  "source": "// SPDX-License-Identifier: MIT\r\npragma solidity ^0.8.0;\r\n\r\ncontract PatientDataAccess {\r\n    \r\n    // Patient structure containing health data and access permissions\r\n    struct Patient {\r\n        string name;\r\n        uint age;\r\n        address patientAddress;\r\n        mapping(address => bool) accessList;\r\n        bool exists;\r\n    }\r\n\r\n    // Mapping of patient IDs to Patient struct\r\n    mapping(string => Patient) private patients;\r\n\r\n    // Registers a new patient\r\n    function registerPatient(string memory patientID, string memory name, uint age) public {\r\n        // Avoid re-registering\r\n        if (patients[patientID].exists) {\r\n            return;\r\n        }\r\n\r\n        Patient storage newPatient = patients[patientID];\r\n        newPatient.name = name;\r\n        newPatient.age = age;\r\n        newPatient.patientAddress = msg.sender;\r\n        newPatient.exists = true;\r\n    }\r\n\r\n    // Allows patient to grant access to a healthcare provider\r\n    function grantAccess(string memory patientID, address providerID) public {\r\n        Patient storage patient = patients[patientID];\r\n        \r\n        if (!patient.exists) {\r\n            return;\r\n        }\r\n        \r\n        if (patient.patientAddress != msg.sender) {\r\n            return;\r\n        }\r\n        patient.accessList[providerID] = true;\r\n    }\r\n\r\n    // Allows patient to revoke access from a healthcare provider\r\n    function revokeAccess(string memory patientID, address providerID) public {\r\n        Patient storage patient = patients[patientID];\r\n        \r\n        if (!patient.exists) {\r\n            return;\r\n        }\r\n        \r\n        if (patient.patientAddress != msg.sender) {\r\n            return;\r\n        }\r\n        patient.accessList[providerID] = false;\r\n    }\r\n\r\n    // Checks if a provider has access to a patient's record\r\n    function checkAccess(string memory patientID, address providerID) public view returns (bool) {\r\n        Patient storage patient = patients[patientID];\r\n\r\n        if (!patient.exists) {\r\n            return false;\r\n        }\r\n        return patient.accessList[providerID];\r\n    }\r\n}",
  "sourcePath": "D:\\repos\\healthchain-access-control\\src\\smart_contract\\contracts\\HDA.sol",
  "compiler": {
    "name": "solc",
    "version": "0.8.1+commit.df193b15.Emscripten.clang"
  },
  "schemaVersion": "3.4.16",
  "updatedAt": "2025-10-24T07:29:56.099Z",
  "networkType": "ethereum",
  "devdoc": {
    "kind": "dev",
    "methods": {},
    "version": 1
  },
  "userdoc": {
    "kind": "user",
    "methods": {},
    "version": 1
  }
}